:1000000000800020BD0100005125000015250000E2
:1000100015250000152500001525000015250000F8
:1000200015250000152500001525000051250000AC
:100030005125000015250000512500000525000070
:1000400051250000512500005125000051250000D8
:1000500051250000512500005125000051250000C8
:1000600051250000512500005125000051250000B8
:1000700051250000512500005125000051250000A8
:100080005125000051250000512500005125000098
:100090005125000051250000512500005125000088
:1000A0005125000051250000512500005125000078
:1000B0005125000051250000512500005125000068
:1000C0005125000051250000512500005125000058
:1000D0005125000051250000512500005125000048
:1000E0005125000051250000512500005125000038
:1000F00051250000211D000051250000192200009B
:10010000512500006918000051250000512500000C
:100110005125000051250000512500005125000007
:1001200051250000512500005125000051250000F7
:1001300051250000512500005125000051250000E7
:1001400051250000512500005125000051250000D7
:1001500051250000512500005125000051250000C7
:1001600051250000350800005125000051250000F0
:1001700051250000512500005125000051250000A7
:100180005125000051250000512500005125000097
:100190005125000051250000512500005125000087
:1001A0005125000051250000512500005125000077
:1001B000512500005125000051250000574B4CF2FD
:1001C000205210B51A804DF628121A8000BF00BFC9
:1001D00002F0C2F9524B4FF010621A60514A9A6015
:1001E000514ADA60A3F53043203B1A6812F480725A
:1001F00004D14E490A604FF4A8521A604C4B1A7849
:10020000110703D51A7842F008021A70494B4A4C7C
:100210004A482A221A704A4A00239918A14203D256
:10022000195899500433F8E7464B474900228B424E
:1002300002D243F8042BFAE74448454900235A58B0
:100240001A500433B3F5DE7FF9D1424B424A802184
:1002500003F8011B9342FBD1404B3C4A1A60404BD0
:100260000A221A70A3F5805324225A70A0221A7011
:100270009A799207FCD59A79D406FCD4394A9379B5
:1002800003F00C03082B374BF9D103221A714022DB
:100290005A719A799006FCD5324A9179314B4906C8
:1002A000FBD5314A314911600221516020221A7078
:1002B0009A7902F00C020C2AFAD12D4B2D4A1A60C1
:1002C0002D4B2E4A1A6000225A60072243F8042C54
:1002D0002B4AC3F80C2D62B600F06EF9134B1B6865
:1002E000DA0705D5274800F0DBF8274B274A1A60C4
:1002F000274B1B785B0609D5234C244A236893427D
:1003000004D1204800F0CCF80023236002F0E2F989
:1003100002F028F900F098FEFEE700BF0E2005402D
:1003200030800440823F04000100002B14D00340C1
:1003300002D0074000E00740388CFF1F282B000048
:100340006087FF1F388CFF1F148FFF1F0082FF1F65
:100350000000000000E400E05FE400E008ED00E0E1
:100360000050064000400640448004400000030165
:1003700004800440C010050014E000E0FF76010096
:100380000000202045C037561CE00340A5C3945A06
:1003900000F00740FFFFFFFFFFFFFFFFFFFFFFFF32
:1003A000FFFFFFFFFFFFFFFFFFFFFFFFFFFFFFFF5D
:1003B000FFFFFFFFFFFFFFFFFFFFFFFFFFFFFFFF4D
:1003C000FFFFFFFFFFFFFFFFFFFFFFFFFFFFFFFF3D
:1003D000FFFFFFFFFFFFFFFFFFFFFFFFFFFFFFFF2D
:1003E000FFFFFFFFFFFFFFFFFFFFFFFFFFFFFFFF1D
:1003F000FFFFFFFFFFFFFFFFFFFFFFFFFFFFFFFF0D
:10040000FFFFFFFFFFFFFFFFFFFFFFFFFEFFFFFFFD
:1004100010B5054C237833B9044B13B10448AFF33E
:1004200000800123237010BD388CFF1F00000000E6
:10043000282B000008B5064B1BB106480649AFF350
:1004400000800648036813B1054B03B1984708BD07
:1004500000000000282B00003C8CFF1F388CFF1F81
:100460000000000008B5034B1878012100F04CF89B
:1004700008BD00BF6087FF1F10B5084C2078012120
:1004800000F01EF8642000F083F82078002100F0CE
:1004900017F8642000F07CF810BD00BF6087FF1FD4
:1004A000044B00221A6004490A60044A10601022BA
:1004B0001A60704714D0034004D0034000D00340BA
:1004C00021281ED80F4B53F8303093F8802212F0B9
:1004D000FF0F08D019B1012283F880207047012254
:1004E00083F800217047074B03EBC000436821B13C
:1004F0001A6842F003021A6070471A6822F002027A
:100500001A6070477C28000021281CD80E4B03EB92
:10051000C0035B68012908D10B4A52F8302082F8E9
:1005200080124FF4A2721A607047074A52F83020C6
:10053000002082F8800219B94FF480721A60704767
:1005400040F203121A6070477C28000072B60C4B10
:100550001B680C4A12680C49096862B611F0806F7A
:1005600002D0322B88BF0132C3F5BB33FF330749BA
:10057000A1FB03039B094FF47A7000FB0230704724
:1005800018E000E0548CFF1F04ED00E0ABAAAAAA1B
:1005900038B50546FFF7DAFF044665B1FFF7D6FF29
:1005A000001BB0F57A7F03D3013D04D004F57A74C3
:1005B00000F0FCFCF2E738BD10B5254B4FF400020B
:1005C0001A604FF080721A604FF000721A604FF09C
:1005D00080621A604FF000621A6000201D4B1860A4
:1005E0004BF6FF710433196028231B4A136008324D
:1005F0001360083213600832136008321360083247
:10060000136008321360083213600922134C226011
:1006100004F58054043420600434216004342360E1
:1006200008342360143C226004F5FE240434206066
:100630000B4801600B490B6008310B600A4B1A60D4
:1006400001F06AFE0420FFF7A3FF00F06BFC10BD71
:1006500008E100E0048003400C8003400080034078
:1006600008800B400C800B4000800B4030B40E4BD8
:100670001B7843F002020D4C04EBC20460600C488E
:10068000007800280CBF8824C82444EA0141074DA3
:1006900045F8321080F00100054A107083F0010324
:1006A000014A137030BC7047C08CFF1F0080FF1FD1
:1006B000398DFF1F10B4431E032B11D872B60A4A9E
:1006C00052F8230050B14268074941F82320074AF5
:1006D00032F813400188611A22F8131062B600E064
:1006E00000205DF8044B7047B08CFF1F048FFF1F84
:1006F000013803280DD872B6074B53F820302BB1C0
:10070000002001305B68002BFBD100E0002062B6C6
:1007100070470020704700BF048DFF1F38B572B6C8
:1007200001231B491B4C5A1812F8012C12F0080F18
:1007300024D09A0054F832506DB9164B03EBC20125
:1007400008304860144943F83210144B1A78013AC3
:100750001A7062B638BD42F0010254F832506DB9D9
:100760000C4B03EBC201083048600D4943F83210CE
:100770000A4B1A78013A1A7062B638BD0133052B5C
:10078000D1D162B60022054B1A7001F091FE38BD3E
:10079000002A00000080FF1F880040002E8DFF1FF0
:1007A000C800400010B4431E032B37D8400140F06E
:1007B00010001C4A104472B61B4AD25C032A09D8A6
:1007C000DFE802F019021B050830022216E00830AB
:1007D000042213E0154A52F823201AB9134A42F8AA
:1007E000231003E0124A52F823205160104A42F8C5
:1007F000231062B612E0032200E005220A4CE25404
:1008000001F10803436000F00803002B0CBF8823AC
:10081000C8230A8843EA0243036062B65DF8044BCA
:10082000704700BF0080FF1F6C8CFF1F048DFF1FEF
:10083000148DFF1F2DE9F84FA34CDFF8E092DFF88D
:10084000E0A2DFF8E0B22578EDB215F0040F1DD07C
:100850009E4B1B7813F0FF0F16D09D4B1B7803F0B7
:10086000FF022BB1531EDBB2994A137003B900BECD
:10087000984B1B7803F0FF0233B1531EDBB2954A4D
:1008800013700BB900F03EFE0423237015F0080F1F
:1008900000F0DC8299F80030DBB21D0940F01D82C7
:1008A0008D4D9E0805EBC6035A6855F83630C3F3E4
:1008B0008303013B0C2B00F20C82DFE813F0C7012D
:1008C000C7010A020A020A020A020A020A02E40133
:1008D0000A020A020A020D00804913680B6052687E
:1008E0004A607F4A45F8362000227E490A607A49EC
:1008F0000A618A6101217C4A11709BB240F28162D7
:10090000934218D8B3F5D06F2ED2B3F5817F00F0A3
:100910001E8106D8802B00F0C980822B00F0CC808D
:1009200062E140F20232934200F02681B3F5A06FFB
:1009300000F05E8158E142F22102934200F0828190
:1009400007D8B3F5086F00F0AB80B3F5106F11D086
:100950004AE142F22122934200F0418142F22132E7
:10096000934200F045813FE1604B5D68002D40F00F
:10097000188130E1594B9A78544B1A70564D05F155
:1009800080062B6A13F0800F03D0686A083801F0E4
:100990008FFD0835B542F4D1DFF88C81002637464B
:1009A000534AB05828B1456801F082FD0DB1284680
:1009B000F9E700234E4973504E4AB3504E4BF0585E
:1009C00028B1456801F074FD0DB12846F9E7002310
:1009D00049497350494AB35028F8023F484BFB5CE1
:1009E000023B032B0AD8DFE803F0020602060022CE
:1009F000434BDA5502E00122414BDA550137043608
:100A0000102ECDD100223F4B1A7001253E4EDFF84B
:100A10001C81314F05EB080313F8013C06F8043B39
:100A200013F0080F2DD001F023FD48B1A90007EB0A
:100A3000451200F108035360344A47F8312007E0BB
:100A4000AB00002247F833202E4B1A7801321A707F
:100A500001F00EFD58B1AB0043F0010307EBC301F9
:100A600000F108024A601E4A47F8332009E0AB0053
:100A700043F00103002247F83320224B1A78013259
:100A80001A70AA0042F00201002347F8313042F008
:100A9000030247F8323001351D4B9E42BAD116E2AF
:100AA0000A4B1B781B4D2B700127A6E0194D002324
:100AB0002B706B700227A0E0084B9B88042B37D962
:100AC0000F22154B1A70BDE080200740388DFF1FA4
:100AD000C18CFF1F5C8DFF1F0080FF1F248DFF1F37
:100AE000C8004000588CFF1F398DFF1F042A0000EA
:100AF000B08CFF1F5C8CFF1F048DFF1F148DFF1F28
:100B00006C8CFF1F2E8DFF1FC42007408800400003
:100B1000D4200740308DFF1FC020074090200740A1
:100B20009420074098200740028FFF1F002A0000F2
:100B30009E4A0021117051709D4A12F8233013F023
:100B4000020F58D0994D01232B70022755E0994B85
:100B50009B8803F07F02042A02DC964A52881AB16D
:100B60000F22934B1A706DE0914A12F8231021F076
:100B7000020102F82310AAE18E4B9B8803F07F024A
:100B8000042A02DC8B4A52881AB10F22884B1A7051
:100B900058E0874A12F8231041F0020102F82310AE
:100BA00095E1844B5E889F88834BA3F10C0211462C
:100BB00033F80C0CB04209D133F80A0CB84205D115
:100BC000360A032E0CBF2F78178916E00D690C33F7
:100BD0000C32002DEBD10F22754B1A7032E0754BA1
:100BE0009A78764B1A7072E10F22714B1A7029E0D5
:100BF00000273D4601E002276C4D6E4BDB889F428B
:100C000028BF1F46402F34BF3E4640262846314667
:100C1000FFF72CFD3544BF1B03D13F2E00F25C8152
:100C200010E0402F34BF3E46402628463146FFF7AD
:100C30001DFD3544BF1B01D13F2E03D9604B1D6004
:100C4000604B1F8001238AF8003042E0594B19881D
:100C500042F22103994212D15B4BD81D12F8011BBD
:100C600003F8011F8342F9D1584B1B68862B02D130
:100C70000F22574B1A7000200146FFF7F7FC554B27
:100C800045F8363025E04E4B1E68BEB14D4FB7F8E3
:100C90000080B8F1400F34BF454640253046294614
:100CA000FFF7E4FCC5EB08039BB23B800BB9402D7A
:100CB00001D1354400E00025414B1D603D4B1B88B0
:100CC000B3F5A06F05D13B4B00225A709B788BF88F
:100CD000003001238AF80030B5E03F4E9F0806EB54
:100CE000C708D8F80420A2F10800013DEDB213F0C6
:100CF000080F47D001F0DCFB384B53F825304BB3DD
:100D00005A68364941F8252003F10802C8F8042042
:100D1000334A525D032A12D8DFE802F002060A0EB7
:100D200003212F4A51550AE002212D4A515506E070
:100D300005212B4A515502E00421294A515518F04A
:100D4000080F0CBF8822C8221B8842EA034346F8DA
:100D5000373078E0224B5B5D032B0BD8DFE803F0E4
:100D60007373020600221E4B5A556CE001221C4B85
:100D70005A5568E018F0080F0CBF02220322184BE6
:100D80005A5560E056F837301B0C22F8083C002B0F
:100D900051D0002322F8063C42F8043C114B53F892
:100DA00025300BBB0F4B43F8250021E0308DFF1F92
:100DB000C0200740248DFF1F102A00006C8DFF1FEC
:100DC000588CFF1F2C8DFF1F0B8FFF1F0C8FFF1FD9
:100DD000C18CFF1FC80040000080FF1F048DFF1F53
:100DE0006C8CFF1FB08CFF1F3F4B53F825305860B1
:100DF0003D4B43F825003D4B33F8151032F8082CD5
:100E00000A4423F8152001F033FB60B100F1080318
:100E1000C8F8043018F0080F354B364A08BF13469F
:100E200046F837300FE0002346F83730324B1A7857
:100E300001321A7007E018F0080F2D4B2D4A08BF39
:100E4000134646F8373008232370FCE415F0010FF1
:100E500022D02A4902230B700022294B1A70294BF9
:100E600024481860284C5C6098602848D8601A6153
:100E70009A610D20264B1870FF232648037008380E
:100E8000037018300270244A13709F22234B1A708B
:100E900001230B70BDE8F88F15F0800F05D00D22EF
:100EA0001B4B1A708022403B1A7015F0020F06D0BF
:100EB000184B1A78D2B21A700222083B1A7015F039
:100EC000100F0ED01022164B1A70BDE8F88F0020BC
:100ED0000146FFF7CBFBB5E628460021FFF7C6FB2E
:100EE000B0E6BDE8F88F00BF5C8CFF1F048FFF1FCA
:100EF000C8004000880040002E8DFF1F942007404E
:100F0000C08CFF1F0080FF1F708CFF1FC48CFF1F51
:100F1000C0200740882007408C20074084200740DD
:100F20008020074008B500F093F900231B491A46BA
:100F30005A50C81842600833882BF9D1184B1A68E8
:100F400042F480221A60154BC3F30721154A117031
:100F5000C3F30741143211701B0E04321370FF23C8
:100F6000343A137008321370783A137001238432C4
:100F7000137000216C3211707C3A137070220A4B8E
:100F80001A704FF40072A3F241331A60102203F179
:100F9000C04303F5C8231A7008BD00BF0080FF1FBF
:100FA000348004409C20074049E400E008B50F4B22
:100FB0001B78CBB901220D4B1A7000F0D9F908B19A
:100FC00000F032F800F048FE08B101F073FB01F0C8
:100FD000BFF808B100F02CF900F0F6FB08B101F001
:100FE00059FB0022014B1A7008BD00BF3A8DFF1F4C
:100FF00008B500F0BDF908BD08B500F06DF908BDF1
:1010000008B500F095F908BD08B500F049FA08BD2B
:1010100008B5084600F038FA08BD00BF08B5084614
:10102000114600F0B3F908BD704700BF044B002221
:101030001A714FF47A7199601A73024A1A607047F4
:101040003C8DFF1F9829000008B5FFF70BFAFFF74A
:1010500013FAFFF7ABFFFAE708B503681B68C9B2DC
:10106000984708BD08B503681B68C9B2984708BD12
:1010700008B503681B68C9B2984708BD08B503687E
:101080001B68C9B2984708BD08B503681B68C9B298
:10109000984708BD08B503681B68C9B2984708BDE2
:1010A00008B503681B68C9B2984708BD08B503684E
:1010B0001B68C9B2984708BD08B54B0803F13760F3
:1010C00000F5D830B0FBF1F000F02EFC08BD00BFF9
:1010D00010B514464B0803F1376000F5D830B0FB6B
:1010E000F1F000F021FC204600F064FC10BD00BFD0
:1010F00008B500F08FFC08BD08B5084600F0BCFC40
:1011000008BD00BF08B500F0A7FD08BD08B500F098
:10111000CFFD08BD08B500F0AFFD08BD08B500F073
:1011200079FD08BD08B500F0DDFD08BD08B500F08B
:1011300081FD08BD08B5084600F0BAFC012008BDD5
:1011400008B5084600F0B4FC012008BD10B51446EF
:101150000846114600F0FCFC204610BD38B50D468F
:10116000084601F0DFFA04462846214600F0F0FC6C
:10117000204638BD08B54B0803F1376000F5D8307C
:10118000B0FBF1F000F04CFE08BD00BF10B51446F6
:101190004B0803F1376000F5D830B0FBF1F000F0F8
:1011A0003FFE204600F082FE10BD00BF08B500F0F3
:1011B000ADFE08BD08B5084600F0DAFE08BD00BF68
:1011C00008B500F0C5FF08BD08B500F0EDFF08BD8B
:1011D00008B500F0CDFF08BD08B500F097FF08BDC9
:1011E00008B500F0FBFF08BD08B500F09FFF08BD83
:1011F00008B5084600F0D8FE012008BD08B508462D
:1012000000F0D2FE012008BD10B514460846114674
:1012100000F01AFF204610BD38B50D46084601F013
:1012200081FA04462846214600F00EFF204638BDCC
:10123000704700BF044B00221A714FF47A71996015
:101240001A73024A1A6070474C8DFF1FB8290000BC
:1012500000B585B072B61B4B70221A7041211A4A34
:1012600011700F21013A117080221A701A461378FA
:1012700013F0800FFBD0154B186862B6144B9842E0
:101280009CBF00EB8000400001A90A2201F0CEF8CB
:101290009DF804307BB908E001A9595C31B1918017
:1012A000023201330A2BF7D100E0002301335B0047
:1012B000084A137003E0074A53800123ECE705B0A6
:1012C0005DF804FB000002400700024008000240F5
:1012D0007F969800F087FF1F10B5134B1B6853B91A
:1012E000124B1B7813F0FF0F18D00320FFF7E2F921
:1012F0000D4B1860A8B10C4B186843885A1C034466
:101300001C7A03889A4206D301F0D2F80022064BD9
:101310001A60204610BD4280204610BD4FF0FF30BD
:1013200010BD4FF0FF3010BD688DFF1F388DFF1FBF
:1013300008B50D4B1B6883B90C4B1B7813F0FF0FDE
:1013400008D00320FFF7B6F9074B186028B94FF013
:10135000FF3008BD4FF0FF3008BD034B1B685A88B3
:101360001344187A08BD00BF688DFF1F388DFF1F1A
:10137000044B9888044B1B681BB11A885B88D31AEE
:1013800018447047048FFF1F688DFF1F2DE9F04739
:1013900004460122374B1A700E46002964D0DFF84C
:1013A000E080DFF8E0909A46334FD8F8003083BBF6
:1013B00099F8003013F0FF0F06D100222D4B1A7060
:1013C0004FF0FF30BDE8F0874AF2F9250420FFF71F
:1013D0008FF907280AD801238AF8003001F048F86D
:1013E000C8F80000A8B900238AF80030013D01D0F8
:1013F0003B7833B10122204B1A704FF0FF30BDE82B
:10140000F087FFF7D3FD99F8003013F0FF0FDDD11F
:10141000D3E700233B70D8F800104A88C2F140059A
:10142000AE4238BF354602F108030B442A444A80D5
:10143000761B3DB1254414F8012B03F8012BAC4277
:10144000F9D100E025464B883F2B07D940230B807C
:101450000420FFF7A7F90023C8F800300522074B46
:101460001A700EB12C46A0E70020024B1870BDE8A0
:10147000F08700BF5D8DFF1F648DFF1F5C8DFF1F18
:10148000608DFF1F388DFF1F00B583B002AB03F8DE
:10149000010D18460121FFF779FF03B05DF804FB49
:1014A00010B5144B1B7813F0FF0F21D00122124B03
:1014B0001A70124B196851B10024114B1C704B88E3
:1014C0000B800420FFF76EF90C4B1C600DE000F060
:1014D000CFFF014630B10022094B1A700420FFF7FC
:1014E00061F902E00122064B1A700022024B1A70C9
:1014F00010BD00BF388DFF1F5D8DFF1F608DFF1F6A
:101500005C8DFF1F08B50E4B1B7813F0FF0F16D133
:101510000C4B196841B14B880B800420FFF742F94E
:101520000022084B1A6008BD00F0A2FF014618B166
:101530000420FFF737F908BD0122034B1A7008BDDC
:101540005D8DFF1F608DFF1F5C8DFF1F174B1A689D
:1015500042F480521A600023154A1370154A137022
:10156000154A1370154A1370154A137040F213315F
:10157000144A11604FF4517104321160C0F34431C8
:10158000114A1170C0F34711517000F01F009072A2
:10159000937013742C23D37040220C4B1A704FF4A9
:1015A0000032A3F22D331A60704700BF348004402C
:1015B000D88DFF1F6E8DFF1FE08DFF1FD98DFF1F80
:1015C0006D8DFF1F08C0044000C0064031E400E0FC
:1015D000164B9B7803F0EC0300F00302134310F06A
:1015E000040F18BF43F01003104A937000F00F036C
:1015F000042B04D11346927942F040029A710B4BAE
:101600005A7902F0EF0210F0100F18BF42F01002EA
:10161000064B5A719B7903F0EF0310F0200F18BFAF
:1016200043F01003014A9371704700BF00C00640A9
:1016300010B5114B1B6813F4805F1CD00F4B1B7847
:1016400013F0FF0F06D00D4CFFF7B0FC237813F01A
:10165000FF0FF9D14FF40032094B1A600023094AF9
:10166000D37040F2031208490A6004310A60074A45
:101670001370074A137010BD348004406D8DFF1F36
:1016800084E100E000C0064008C00440D88DFF1F80
:101690006E8DFF1F10B50446094A137813F0FF0F33
:1016A000FBD120460121FEF72FFF20460021FEF747
:1016B00007FF044B53F83420034B1A6010BD00BFE2
:1016C0006D8DFF1F7C280000DC8DFF1F2DE9F04190
:1016D00007461F4B1B6813F4805F37D01D4B1B68F8
:1016E0000BB101221A701C4B1C780134282C28BF26
:1016F00000241A4D1A4EDFF86C8017E000F034FF1A
:1017000040280FDC337913F0800F0FD02B78013392
:10171000282B28BF002318F80320D2B2F271DBB2C5
:101720002B7003E0FF2801DDFFF740FC2B78DBB2D4
:101730009C42E3D0FFB20B4B1F5501220A4B1A709B
:10174000E4B2054B1C70AC22054BDA70BDE8F081A9
:1017500034800440DC8DFF1FE08DFF1FD98DFF1FFB
:1017600000C00640708DFF1F6D8DFF1F38B5054608
:101770000C4629B115F8010BFFF7A8FF013CF9D180
:1017800038BD00BF10B5064B1B7813F0FF0F06D015
:10179000034CFFF70BFC237813F0FF0FF9D110BDBA
:1017A0006D8DFF1F064B1B78DBB2064A1278D2B252
:1017B00093422CBF273202F1FF32D01A704700BF8C
:1017C000E08DFF1FD98DFF1F054B1878C0B2054B68
:1017D0001B78DBB2984238BF4030C01A704700BF58
:1017E000D88DFF1F6E8DFF1F0A4B1A78D2B20A4B9D
:1017F0001B78DBB29A4209D00133402B28BF00236B
:10180000064AD05CDBB2044A137070474FF0FF30D9
:10181000704700BFD88DFF1F6E8DFF1F988DFF1F73
:10182000094B1A78D2B2094B1B78DBB29A4207D027
:101830000133402B28BF0023054AD05CC0B270475B
:101840004FF0FF30704700BFD88DFF1F6E8DFF1F18
:10185000988DFF1F024B1A78D2B2024B1A70704754
:101860006E8DFF1FD88DFF1F264B1B7913F0200FA5
:1018700012D0244BDB79D9B2234B1B780133402B98
:1018800028BF0023214A1278D2B29A4204D0204ABB
:10189000D154DBB21C4A13701A4BDB78DBB213F065
:1018A000800F1CD0174A127912F0800F17D0194AF6
:1018B0001178C9B2184A1278D2B2914203D16C2180
:1018C000104AD1700BE00132282A28BF00221349A8
:1018D000885CC0B20B49C871D2B20F490A7013F0CC
:1018E000400F0ED0074B1B7913F0400F09D0002298
:1018F0000B4B1A700B4B1B6803B11A702C22014B57
:10190000DA70704700C00640D88DFF1F6E8DFF1F34
:10191000988DFF1FE08DFF1FD98DFF1F708DFF1F5A
:101920006D8DFF1FDC8DFF1F194B1A6842F480621A
:101930001A600023174A1370174A1370174A13705E
:10194000174A1370174A137040F21332164B1A607D
:101950004FF4517204331A60C0F34432134B1A70BF
:10196000C0F347125A7000F01F00987204229A7058
:101970000221D9745A7588221A743C22DA704022E6
:101980000B4B1A704FF40052A3F229331A607047C0
:1019900034800440648EFF1FE28DFF1F6C8EFF1F9A
:1019A000658EFF1FE18DFF1F40A0044000A0064090
:1019B0002DE400E0164B9B7803F0EC0300F00302EB
:1019C000134310F0040F18BF43F01003104A937034
:1019D00000F00F03042B04D11346927942F0400229
:1019E0009A710B4B5A7902F0EF0210F0100F18BFEA
:1019F00042F01002064B5A719B7903F0EF0310F08E
:101A0000200F18BF43F01003014A9371704700BFC5
:101A100000A0064010B5114B1B6813F4806F1CD05A
:101A20000F4B1B7813F0FF0F06D00D4CFFF7BEFADB
:101A3000237813F0FF0FF9D14FF40052094B1A60CD
:101A40000023094AD37040F2031208490A600431A6
:101A50000A60074A1370074A137010BD34800440AF
:101A6000E18DFF1F84E100E000A0064040A004409B
:101A7000648EFF1FE28DFF1F10B50446094A1378DC
:101A800013F0FF0FFBD120460121FEF73DFD20465C
:101A90000021FEF715FD044B53F83420034B1A6068
:101AA00010BD00BFE18DFF1F7C280000688EFF1F66
:101AB0002DE9F04107461F4B1B6813F4806F37D0A8
:101AC0001D4B1B680BB101221A701C4B1C78013492
:101AD000402C28BF00241A4D1A4EDFF86C8017E006
:101AE00000F042FD40280FDC337913F0800F0FD057
:101AF0002B780133402B28BF002318F80320D2B2E3
:101B0000F271DBB22B7003E0FF2801DDFFF74EFA24
:101B10002B78DBB29C42E3D0FFB20B4B1F55012266
:101B20000A4B1A70E4B2054B1C70BC22054BDA70EC
:101B3000BDE8F08134800440688EFF1F6C8EFF1F6B
:101B4000658EFF1F00A00640E48DFF1FE18DFF1F83
:101B50002DE9F84F0746284B1B6813F4806F49D0D6
:101B6000264B1B680BB101221A7007EB010B5F4576
:101B70003DD2DFF89890224EDFF88C80DFF890A0FD
:101B800099F800400134402C28BF00243578EDB28C
:101B9000A54220D1BC2388F8033000F0E5FC4028A2
:101BA00011DC98F8043013F0800F10D03378013333
:101BB000402B28BF00231AF80320D2B288F8072050
:101BC000DBB2337003E0FF2801DDFFF7EFF9337874
:101BD000DBB29D42E1D017F8013B0AF80430012244
:101BE000084B1A70E4B289F800405F45C8D1BC22A6
:101BF000054BDA70BDE8F88F34800440688EFF1F13
:101C0000658EFF1FE18DFF1F00A006406C8EFF1F39
:101C1000E48DFF1F10B5064B1B7813F0FF0F06D0A5
:101C2000034CFFF7C3F9237813F0FF0FF9D110BD70
:101C3000E18DFF1F064B1B78DBB2064A1278D2B249
:101C400093422CBF3F3202F1FF32D01A704700BFDF
:101C50006C8EFF1F658EFF1F054B1878C0B2054BB9
:101C60001B78DBB2984238BF4030C01A704700BFC3
:101C7000648EFF1FE28DFF1F0A4B1A78D2B20A4B07
:101C80001B78DBB29A4209D00133402B28BF0023D6
:101C9000064AD05CDBB2044A137070474FF0FF3045
:101CA000704700BF648EFF1FE28DFF1F248EFF1F51
:101CB000094B1A78D2B2094B1B78DBB29A4207D093
:101CC0000133402B28BF0023054AD05CC0B27047C7
:101CD0004FF0FF30704700BF648EFF1FE28DFF1F83
:101CE000248EFF1F0A4B1B6813F4806F0FD0094B23
:101CF000DA7802F0CB02DA7040225A74DA7842F0D5
:101D00003402DA70044B1A78D2B2044B1A7070475E
:101D10003480044000A00640E28DFF1F648EFF1F48
:101D200070B4364B1B7913F0300F25D072B6334B9D
:101D30009B7D03F0FF022BB9304BDA7940225A74B5
:101D400062B619E062B62E4B1978C9B22D4B1D78D8
:101D5000EDB22A4C2C4EE379D8B24B1C402B28BF55
:101D60000023AB421CBFF0541946531E13F0FF0270
:101D7000F1D1C9B2224B1970204BDA78D2B212F0ED
:101D8000800F27D01B7913F0800F23D01F4B1C78B6
:101D9000E4B21F4B1B78DBB29C4210D017491D4D9B
:101DA00001E0A3420BD00133402B28BF0023087968
:101DB000E85CC0B2C871087DC0B20728F1D9DBB2B7
:101DC00013490B700D4B1B7913F0800F02D07C214F
:101DD0000A4BD97012F0400F0ED0084B1B7913F04C
:101DE000400F09D000220C4B1A700C4B1B6803B13A
:101DF0001A703C22014BDA7070BC704700A006409C
:101E0000648EFF1FE28DFF1F248EFF1F6C8EFF1F4D
:101E1000658EFF1FE48DFF1FE18DFF1F688EFF1F82
:101E2000194B1A6842F400621A600023174A1370B3
:101E3000174A1370174A1370174A1370174A137012
:101E400040F21332164B1A604FF4517204331A6089
:101E5000C0F34432134B1A70C0F347125A7000F0AB
:101E60001F00987204229A700221D9745A75882230
:101E70001A743C22DA7040220B4B1A704FF4004265
:101E8000A3F22B331A60704734800440D88EFF1FB2
:101E90006E8EFF1FE08EFF1FD98EFF1F6D8EFF1FFE
:101EA0000CB0044000B006402FE400E0164B9B78D5
:101EB00003F0EC0300F00302134310F0040F18BF0B
:101EC00043F01003104A937000F00F03042B04D169
:101ED0001346927942F040029A710B4B5A7902F004
:101EE000EF0210F0100F18BF42F01002064B5A71AB
:101EF0009B7903F0EF0310F0200F18BF43F010039D
:101F0000014A9371704700BF00B0064010B5114BF5
:101F10001B6813F4006F1CD00F4B1B7813F0FF0FDE
:101F200006D00D4CFFF742F8237813F0FF0FF9D1DC
:101F30004FF40042094B1A600023094AD37040F263
:101F4000031208490A6004310A60074A1370074AFD
:101F5000137010BD348004406D8EFF1F84E100E0DB
:101F600000B006400CB00440D88EFF1F6E8EFF1FDD
:101F700010B50446094A137813F0FF0FFBD1204631
:101F80000121FEF7C1FA20460021FEF799FA044B21
:101F900053F83420034B1A6010BD00BF6D8EFF1F35
:101FA0007C280000DC8EFF1F2DE9F04107461F4B07
:101FB0001B6813F4006F37D01D4B1B680BB1012257
:101FC0001A701C4B1C780134282C28BF00241A4D91
:101FD0001A4EDFF86C8017E000F0C6FA40280FDCDC
:101FE000337913F0800F0FD02B780133282B28BFC3
:101FF000002318F80320D2B2F271DBB22B7003E099
:10200000FF2801DDFEF7D2FF2B78DBB29C42E3D044
:10201000FFB20B4B1F5501220A4B1A70E4B2054B5D
:102020001C70BC22054BDA70BDE8F081348004409E
:10203000DC8EFF1FE08EFF1FD98EFF1F00B0064011
:10204000708EFF1F6D8EFF1F2DE9F84F0746284B3E
:102050001B6813F4006F49D0264B1B680BB101229B
:102060001A7007EB010B5F453DD2DFF89890224EC6
:10207000DFF88C80DFF890A099F800400134282C1C
:1020800028BF00243578EDB2A54220D1BC2388F8C2
:10209000033000F069FA402811DC98F8043013F09E
:1020A000800F10D033780133282B28BF00231AF873
:1020B0000320D2B288F80720DBB2337003E0FF2898
:1020C00001DDFEF773FF3378DBB29D42E1D017F8F4
:1020D000013B0AF804300122084B1A70E4B289F877
:1020E00000405F45C8D1BC22054BDA70BDE8F88FCF
:1020F00034800440DC8EFF1FD98EFF1F6D8EFF1FC2
:1021000000B00640E08EFF1F708EFF1F10B5064B1B
:102110001B7813F0FF0F06D0034CFEF747FF237820
:1021200013F0FF0FF9D110BD6D8EFF1F064B1B780A
:10213000DBB2064A1278D2B293422CBF273202F1A8
:10214000FF32D01A704700BFE08EFF1FD98EFF1FED
:10215000054B1878C0B2054B1B78DBB2984238BFEC
:102160004030C01A704700BFD88EFF1F6E8EFF1F11
:102170000A4B1A78D2B20A4B1B78DBB29A4209D0CA
:102180000133402B28BF0023064AD05CDBB2044A4F
:10219000137070474FF0FF30704700BFD88EFF1F9D
:1021A0006E8EFF1F988EFF1F094B1A78D2B2094B13
:1021B0001B78DBB29A4207D00133402B28BF0023A3
:1021C000054AD05CC0B270474FF0FF30704700BF87
:1021D000D88EFF1F6E8EFF1F988EFF1F0A4B1B6845
:1021E00013F4006F0FD0094BDA7802F0CB02DA70EB
:1021F00040225A74DA7842F03402DA70044B1A78CA
:10220000D2B2044B1A7070473480044000B00640CC
:102210006E8EFF1FD88EFF1F70B4364B1B7913F0E4
:10222000300F25D072B6334B9B7D03F0FF022BB9E4
:10223000304BDA7940225A7462B619E062B62E4BFE
:102240001978C9B22D4B1D78EDB22A4C2C4EE3798A
:10225000D8B24B1C402B28BF0023AB421CBFF0540C
:102260001946531E13F0FF02F1D1C9B2224B197067
:10227000204BDA78D2B212F0800F27D01B7913F0FE
:10228000800F23D01F4B1C78E4B21F4B1B78DBB2AE
:102290009C4210D017491D4D01E0A3420BD00133E1
:1022A000282B28BF00230879E85CC0B2C871087DDC
:1022B000C0B20728F1D9DBB213490B700D4B1B7963
:1022C00013F0800F02D07C210A4BD97012F0400F1E
:1022D0000ED0084B1B7913F0400F09D000220C4B95
:1022E0001A700C4B1B6803B11A703C22014BDA7058
:1022F00070BC704700B00640D88EFF1F6E8EFF1F67
:10230000988EFF1FE08EFF1FD98EFF1F708EFF1F5C
:102310006D8EFF1FDC8EFF1F60223A4B1A70E12288
:1023200001331A70384B1B78082B10D1012203F1AE
:10233000804303F56C331A60132334490B6001F5B5
:10234000FF2101F2FC710A60314A13601FE00A2B81
:102350000DD139222F4B1A6013232C490B6001F544
:10236000FF2101F2FC710A60294A13600FE00C2B77
:102370000CBF35223D22274B1A60122323490B60E4
:1023800001F5FF2101F2FC710A60214A1360224B22
:102390001B7833B10123214A136002F50022136038
:1023A00005E000231D4A136002F5002213601C4B58
:1023B0001B78012B06D880231A4A136002F50022ED
:1023C00013601AE0042B06D88423164A136002F522
:1023D0000022136011E0082B06D88523114A1360F0
:1023E00002F50022136008E0102B94BF8623872398
:1023F0000C4A136002F50022136001220A4B1A7086
:10240000704700BF004007400888FF1F0CB0034022
:102410000CB00B4008B00340E28EFF1F20B0034019
:102420000988FF1F24B00340E18EFF1F30B4002352
:10243000B0FBF2F402FB14041D46092C94BF3034A7
:102440003734E4B2CC54B0FBF2F008B10133EFE71B
:102450000D4400226A70934207DD885CCC5C8C548A
:10246000C8540132013B9A42F7DB084630BC704742
:1024700072B60D4B1A68B2FA82F30B2B02D962B610
:10248000002070474FF00041D94022EA010206497E
:102490000A6062B6054903EBC303DB00C8180022DB
:1024A000CA504260704700BF0C88FF1F0084FF1FA6
:1024B00008B50F4BC31A0F4AA2FB03131B090B2BC2
:1024C00014D80D4A12783AB10C4A127812F0FF0F64
:1024D00002D0FEF723F908BD72B6094A4FF0004159
:1024E00021FA03F311681943116062B608BD00BFF9
:1024F0000084FF1F398EE3382E8DFF1F388DFF1F9C
:102500000C88FF1F024B1A6801321A60704700BF27
:10251000548CFF1F08B50D4C236813F4802F01D095
:10252000FEF788F9236813F4806F01D0FFF7F8FBFA
:10253000236813F4006F01D0FFF76EFE236813F4D5
:10254000805FE9D0FFF790F9E6E700BF34800440F0
:1025500008B5FFF7DFFF00BF1022014B1A8070475C
:1025600000200540704700BFEFF31383ABB9EFF3D2
:102570001083ABB9EFF3058323B10F2B05D9094ABB
:10258000985C03E04FF4807000E00020EFF31183CB
:102590003BB1834238BF184670474FF0FF30704759
:1025A00000207047F0E300E008B503681B68C9B27B
:1025B000984708BD08B503681B68C9B2984708BDAD
:1025C00008B503681B68C9B2984708BD08B5036819
:1025D0001B68C9B2984708BD08B54B0803F1B7603E
:1025E00000F55840B0FBF1F0FEF7B0FF08BD00BFAA
:1025F00010B514464B0803F1B76000F55840B0FB26
:10260000F1F0FEF7A3FF2046FEF7E2FF10BD00BF8A
:1026100008B5FFF70DF808BD08B50846FFF73AF80A
:1026200008BD00BF08B5FFF7CFF808BD08B5FFF734
:10263000F7F808BD08B5FFF7D7F808BD08B5FFF7EC
:10264000A1F808BD08B5FFF705F908BD08B5FFF703
:10265000A9F808BD08B50846FFF738F8012008BDFD
:1026600008B50846FFF732F8012008BD10B514463A
:1026700008461146FFF77AF8204610BD38B50D46DA
:10268000084600F04FF8044628462146FFF76EF84A
:10269000204638BD704700BF044B00221A714FF42A
:1026A0007A7199601A73024A1A607047E48EFF1FAC
:1026B000602A0000704700BF044B00221A714FF4DB
:1026C0007A7199601A73024A1A607047F48EFF1F7C
:1026D000B02A000070B50F4E0F4D761BB61007D014
:1026E000043D0024013455F8043F9847A642F9D12F
:1026F0000A4E0B4D761B00F003FAB61008D0043DCD
:102700000024013455F8043F9847A642F9D170BD22
:1027100070BD00BF0C2B00000C2B0000242B000010
:102720000C2B000020F0030110F00300C0F10000AA
:1027300051F8043B00F1040C4FEACC0C6FF000029E
:102740001CBF22FA0CF213434FF0010C4CEA0C2C84
:102750004CEA0C4CA3EB0C0222EA030212EACC1264
:1027600004BF51F8043B0430F4D013F0FF0F1FBF37
:10277000013013F47F4F013013F47F0F18BF013085
:10278000704700BF024B13B1024800F005B8704714
:1027900000000000A5270000014600200246034675
:1027A00000F018B838B5094D094C641BA41018BFC7
:1027B00005EB840505D0013C55F8043D9847002CF5
:1027C000F9D1BDE8384000F0ADB900BF000000000D
:1027D00000000000F0B5274C2668D6F8484185B0C7
:1027E0000746002C41D065681F2D1EDD224818B910
:1027F0004FF0FF3005B0F0BD4FF4C8700391029266
:102800000193AFF300800399029A019B04460028CC
:10281000EED0D6F848512560002060600546C6F825
:102820004841C4F88801C4F88C013FB9AB1C0020B2
:102830000135656044F8231005B0F0BD04EB850058
:102840004FF0010CC0F88820D4F888610CFA05F22A
:102850001643022FC4F88861C0F80831E6D1D4F8D5
:102860008C311A43C4F88C21E0E706F5A674C6F84B
:102870004841B8E7FC2A0000000000004008FE4381
:1028800040A004404408FE4344A004400018FE4316
:1028900000C004403000FE43309004403400FE434A
:1028A000349004401C18FE431CC004401018FE4322
:1028B00010C004400818FE4308C004400C18FE4332
:1028C0000CC004400C10FE430CB004401010FE433A
:1028D00010B004401810FE4318B004401C10FE4312
:1028E0001CB004401410FE4314B004400418FE430E
:1028F00004C004400010FE4300B004400008FE4342
:1029000000A004400408FE4304A004400C08FE4359
:102910000CA004400808FE4308A004401418FE431D
:1029200014C004401818FE4318C004400410FE43AD
:1029300004B004400810FE4308B004401400FE43F5
:10294000149004404C08FE434CA004400420FE4375
:1029500004D004402410FE4324B004402010FE4361
:1029600020B004402810FE4328B004402C10FE4341
:102970002CB004400020FE4300D004404808FE4331
:1029800048A004401000FE4310900440FFFFFFFFEA
:102990000000000000000000111000001D100000E9
:1029A000F10F0000F90F00000110000009100000F5
:1029B0000000000000000000F111000009120000FA
:1029C000C1110000D1110000C9110000D91100008F
:1029D000751100008D110000AD110000B51100004F
:1029E000E1110000E91100008910000095100000BD
:1029F000A1100000AD10000019120000FD11000030
:102A000000151915000100006487FF1F1200000067
:102A1000000200009087FF1F430000000003000039
:102A2000EC87FF1F00000000010309047887FF1FE7
:102A30000000000002030904D487FF1F000000000B
:102A400003030904F087FF1F0000000000000000DE
:102A50000000000000000000000000000000000076
:102A6000552600006D2600002526000035260000B2
:102A70002D2600003D260000D9250000F12500008C
:102A80001126000019260000452600004D260000F2
:102A9000A9250000B5250000C1250000CD250000B6
:102AA0007D260000612600000000000000000000FC
:102AB000351100004D110000051100001511000036
:102AC0000D1100001D110000B9100000D110000010
:102AD000F1100000F9100000251100002D11000078
:102AE0005910000065100000711000007D100000FA
:102AF0005D11000041110000430000001088FF1F1D
:102B0000F8B500BFF8BC08BC9E467047852700009A
:102B1000350400002D100000351200009926000039
:042B2000B9260000D2
:042B2400F8B500BF41
:102B28000D0000001201000202000040C0168304DC
:102B3800000101020301000018035400650065004C
:102B48006E00730079006400750069006E006F0004
:102B580009024300020100C0320904000001020218
:102B680001000524001001052401010104240206C6
:102B7800052406000107058203100040090401002E
:102B8800020A00000007050302400000070584024E
:102B98004000000016035500530042002000530077
:102BA80065007200690061006C00000004030904FC
:102BB8000C030000000000000000000000000000FE
:102BC80000000000000000000A040000FFFFFFFFF3
:102BD80000000000FC8AFF1F648BFF1FCC8BFF1FC7
:102BE80000000000000000000000000000000000DD
:102BF80000000000000000000000000000000000CD
:102C080000000000F82A000000000000000000009A
:102C180000000000000000000000000000000000AC
:102C2800000000000000000000000000000000009C
:102C3800000000000000000000000000000000008C
:102C4800000000000000000000000000000000007C
:102C5800000000000000000000000000000000006C
:102C6800000000000000000000000000000000005C
:102C7800000000000000000001000000000000004B
:102C88000E33CDAB34126DE6ECDE05000B00000010
:102C9800000000000000000000000000000000002C
:102CA800000000000000000000000000000000001C
:102CB800000000000000000000000000000000000C
:102CC80000000000000000000000000000000000FC
:00000001FF
